:100000000C9400030C940A030C940A030C940A0346
:100010000C940A030C940A030C940A030C940A032C
:100020000C940A030C940A030C940A030C940A031C
:100030000C940A030C940A030C940A030C940A030C
:100040000C940A030C940A030C940A030C940A03FC
:100050000C940A030C940A030C940A030C940A03EC
:100060000C940A030C940A036A046E047204760466
:100070007A047E0482044552524F520046726964EB
:100080006179005468757273646179005765646EB4
:1000900065736461790054756573646179004D6FAF
:1000A0006E6461790053756E646179005361747593
:1000B00072646179001008040201001F111F001210
:1000C0001F10001D15170015151F0007041F00172E
:1000D000151D001F151D0001011F001F151F001712
:1000E000151F0000000000000000FCFFFF7F000063
:1000F000FCFFFF7F0000FCFFFF7F00001C00007082
:1001000000001C00007000001C00007000001C00BB
:10011000007000001C0000700000FCFFFF7F00006A
:10012000FCFFFF7F0000FCFFFF7F000000000000DD
:1001300000000000000000000000000000000000BF
:1001400000000000000000000000000000000000AF
:10015000000000000000000000000000000000009F
:100160000000FCFFFF7F0000FCFFFF7F0000FCFFA2
:10017000FF7F000000000000000000000000000001
:100180000000000000001C80FF7F00001C80FF7F3B
:1001900000001C80FF7F00001C80037000001C809A
:1001A000037000001C80037000001C8003700000BE
:1001B0001C8003700000FCFF03700000FCFF037054
:1001C0000000FCFF037000000000000000000000C1
:1001D000000000001C80037000001C800370000001
:1001E0001C80037000001C80037000001C800370E2
:1001F00000001C80037000001C80037000001C8045
:1002000003700000FCFFFF7F0000FCFFFF7F000089
:10021000FCFFFF7F00000000000000000000000065
:100220000000FCFF03000000FCFF03000000FCFFD7
:1002300003000000008003000000008003000000B5
:100240000080030000000080030000000080030025
:100250000000FCFFFF7F0000FCFFFF7F0000FCFFB1
:10026000FF7F000000000000000000000000000010
:10027000FCFF03700000FCFF03700000FCFF037034
:1002800000001C80037000001C80037000001C80B4
:10029000037000001C80037000001C8003700000CD
:1002A0001C80FF7F00001C80FF7F00001C80FF7F00
:1002B0000000000000000000000000000000FCFF43
:1002C000FF7F0000FCFFFF7F0000FCFFFF7F0000BE
:1002D0001C80037000001C80037000001C800370F1
:1002E00000001C80037000001C80037000001C8054
:1002F000FF7F00001C80FF7F00001C80FF7F00004C
:100300000000000000000000000000001C000000D1
:1003100000001C00000000001C00000000001C0089
:10032000000000001C00000000001C000000000095
:100330001C00000000001C0000000000FCFFFF7F0C
:100340000000FCFFFF7F0000FCFFFF7F00000000BB
:1003500000000000000000000000FCFFFF7F000024
:10036000FCFFFF7F0000FCFFFF7F00001C8003708C
:1003700000001C80037000001C80037000001C80C3
:10038000037000001C8003700000FCFFFF7F000072
:10039000FCFFFF7F0000FCFFFF7F0000000000006B
:1003A0000000000000000000FCFF03700000FCFFE4
:1003B00003700000FCFF037000001C80037000004D
:1003C0001C80037000001C80037000001C80037000
:1003D00000001C8003700000FCFFFF7F0000FCFF9A
:1003E000FF7F0000FCFFFF7F000000000000000016
:1003F000000000000000E007E0070000E007E00761
:100400000000E007E0070000E007E0070000E00769
:10041000E0070000E007E007000000000000000027
:100420000000000000005F00000007000700147FCC
:10043000147F14242A7F2A12231308646236495534
:1004400022500005030000001C2241000041221C34
:100450000014083E081408083E0808005030000048
:100460000808080808006060000020100804023E28
:100470005149453E00427F40004261514946214179
:10048000454B311814127F1027454545393C4A49E0
:100490004930017109050336494949360649492958
:1004A0001E003636000000563600000814224100B7
:1004B00014141414140041221408020151090632C4
:1004C0004979413E7E1111117E7F494949363E41AD
:1004D0004141227F4141221C7F494949417F09090D
:1004E00009013E4149497A7F0808087F00417F4160
:1004F000002040413F017F081422417F404040409E
:100500007F020C027F7F0408107F3E4141413E7F05
:10051000090909063E4151215E7F091929464649CC
:1005200049493101017F01013F4040403F1F2040C8
:10053000201F3F4038403F631408146307087008C9
:10054000076151494543007F4141000204081020E2
:100550000041417F0004020102044040404040004D
:100560000102040020545454787F484444383844ED
:10057000444420384444487F3854545418087E0971
:1005800001020C5252523E7F0804047800447D4020
:10059000002040443D007F1028440000417F40007F
:1005A0007C041804787C0804047838444444387C7B
:1005B00014141408081414187C7C08040408485403
:1005C000545420043F4440203C4040207C1C2040A8
:1005D000201C3C4030403C44281028440C505050D3
:1005E0003C4464544C44000836410000007F000045
:1005F0000041360800100808100800000000000044
:1006000011241FBECFEFD8E0DEBFCDBF0E949604FD
:100610000C94C8050C940000EF92FF920F931F9367
:10062000CF93DF931F92CDB7DEB7082F69830E9467
:10063000DE0489810E941D05289A8EE4089F8001AE
:100640001124E12CF12C0D511F4FF801EE0DFF1D6F
:1006500084910E94D004EFEFEE1AFE0AFEE4EF163A
:10066000F10499F70F90DF91CF911F910F91FF90B7
:10067000EF900895CF93DF93C5EBD0E0FE01849116
:100680000E94D0042196F0E0CB3BDF07B9F7DF9161
:10069000CF9108950F931F93CF93DF9394E0899F99
:1006A00080011124C0E0D0E005541F4FF801EC0F89
:1006B000FD1F84910E94D0042196C430D105B1F76A
:1006C000DF91CF911F910F9108950F931F93CF93B7
:1006D000DF93CDB7DEB72B970FB6F894DEBF0FBE12
:1006E000CDBF60E088E60E947405082F61E088E6CF
:1006F0000E947405382F62E088E63B870E947405EB
:10070000282F63E088E62A870E947405582F64E04A
:1007100088E659870E947405182F65E088E60E94D4
:100720007405782F66E088E678870E947405402F6C
:100730004F772A853B855985612F788590E02B96E8
:100740000FB6F894DEBF0FBECDBFDF91CF911F91E2
:100750000F9108950F931F93CF93DF93CDB7DEB71B
:1007600027970FB6F894DEBF0FBECDBF022F2983A7
:10077000132F3A834B835C836D837E838F830E9428
:10078000E604802F807366E082958F700E940C03D0
:1007900066E1802F8F700E940C0362E3812F8295A7
:1007A0008F700E940C0361E4812F8F700E940C03F4
:1007B0001B8111700E94DE0487E20E941D05289AA9
:1007C000112369F00FEE13E0F80184910E94D00428
:1007D0000F5F1F4FF4E00F311F07B1F70AC000E3AE
:1007E00010E080E00E94D0040150110901151105AC
:1007F000C1F727960FB6F894DEBF0FBECDBFDF91CD
:10080000CF911F910F910895FF920F931F93CF9354
:10081000DF93CDB7DEB727970FB6F894DEBF0FBED4
:10082000CDBF29833A834B835C83F62E6D83072FDC
:100830007E838F83182F0E94E20485E10E941D05AC
:1008400080E00E942405289A8F2D82958F700E9447
:100850004A038F2D8F700E944A030E943A03802F13
:1008600082958F700E944A03802F8F700E944A03E6
:100870000E943A0382E00E944A0380E00E944A03F9
:10088000812F82958F700E944A03812F8F70279647
:100890000FB6F894DEBF0FBECDBFDF91CF911F9191
:1008A0000F91FF900C944A03CF93DF93CDB7DEB73F
:1008B00027970FB6F894DEBF0FBECDBF852F90E00F
:1008C000FC013197E730F10508F5EC5CFF4F45E09E
:1008D0000C94C20568E18CEA90E01CC06BE185EAEB
:1008E00090E018C06BE18EE990E014C068E186E901
:1008F00090E010C063E18CE890E00CC068E183E810
:1009000090E008C06BE18CE790E004C045E06DE149
:1009100086E790E00E942B0527960FB6F894DEBF7D
:100920000FBECDBFDF91CF910C94D704CF93DF934F
:10093000CDB7DEB727970FB6F894DEBF0FBECDBF99
:100940008BE6809364000E94F8040E946E050E946A
:1009500065030E94650329833A834B835C836D831F
:100960007E838F830E94AA0329813A814B815C8117
:100970006D817E818F810E94040429813A814B819F
:100980005C816D817E818F810E9454042FEF83EC06
:1009900099E0215080409040E1F700C00000D9CF9D
:1009A0002A988EBD0DB407FEFDCF2A9A0895289887
:1009B00080E40E94D00480E80C94D004289882E25D
:1009C0000C94D004289880E20C94D004CF93DF9349
:1009D0000E94E2040E94D704289AC9EFD1E080E087
:1009E0000E94D00421972097D1F7DF91CF910895ED
:1009F00084B18F6284B980E58CBD299A85E38A959C
:100A0000F1F70000299885E08A95F1F70000299A0E
:100A10002A9A81E20E94D0048CEB0E94D00486E0E6
:100A20000E94D00483E10E94D00480E20E94D0049E
:100A30008CE00E94D0040C94E604843520F42898BD
:100A400080680C94D0040895863020F4289880643F
:100A50000C94D0040895AF92BF92DF92EF92FF9270
:100A60000F931F93CF93DF9300D0CDB7DEB78C01E8
:100A70004A8369830E94E20489810E941D054A819C
:100A8000842F0E942405289A85E0D82EF8018491AD
:100A90008823C1F0A12CB12C8052D89E7001112462
:100AA000F501EE0DFF1DE15EFB4F84910E94D00425
:100AB0008FEFA81AB80AE5E0AE16B10489F70F5F08
:100AC0001F4FE4CF0F900F90DF91CF911F910F91A7
:100AD000FF90EF90DF90BF90AF9008951092B90013
:100AE00080EC8093B800089594EA9093BC009091B4
:100AF000BC0097FFFCCF880F8093BB0094E89093D5
:100B0000BC009091BC0097FFFCCF9091B900987FFA
:100B1000983111F080E008956093BB0094E89093C1
:100B2000BC009091BC0097FFFCCF9091B900987FDA
:100B3000983281F794EA9093BC009091BC0097FFA3
:100B4000FCCF8F5F8093BB0084E88093BC008091D2
:100B5000BC0087FFFCCF8091B900887F8034D1F63C
:100B600084E88093BC008091BC0087FFFCCF80911B
:100B7000B900887F8835D9F78091BB0094E99093BC
:100B8000BC000895EE0FFF1F0590F491E02D09942D
:040B9000F894FFCF07
:00000001FF
